:020000040000FA
:1000000078BE0020F5050000A1050000A305000052
:10001000A7050000AB050000AF05000000000000D0
:100020000000000000000000000000003901000096
:10003000B305000000000000A1010000E50500007C
:100040001B0600001B0600001B0600001B0600002C
:100050001B0600001B0600001B0600001B0600001C
:100060001B0600001B0600001B0600001B0600000C
:100070001B0600001B0600001B0600001B060000FC
:100080001B0600001B0600001B0600001B060000EC
:100090001B0600001B0600001B0600001B060000DC
:1000A0001B0600001B0600001B0600001B060000CC
:1000B0001B0600001B0600001B0600001B060000BC
:1000C0001B0600001B060000000000001B060000CD
:1000D0001B0600001B0600001B0600001B0600009C
:1000E0001B0600001B0600001B0600001B0600008C
:1000F0001B0600001B0600001B0600001B0600007C
:10010000000000001B0600001B060000DFF80CD0FA
:1001100006F0D6FE004800478103000078BE0020AC
:1001200072B600BF00BF00BF00BF30BF00BF00BF3E
:1001300000BF00BF62B670472F4B19680868B0E86F
:10014000F20F80F30988BFF36F8F4FF0000080F348
:1001500011884EF00D0E7047000000000648006840
:10016000006880F3088862B661B6BFF34F8FBFF3B3
:100170006F8F00DF00BF00BF08ED00E0A0E8FE1FAA
:10018000C0F800D0C0F804E04FF000007047864689
:100190000846BEE8FE1FDEF800D0DEF804E0704737
:1001A000EFF30980BFF36F8F134B1A68EFF31481DD
:1001B00001F0010120E9F20F106008B54FF02000B6
:1001C00080F3118805F0B4FC4FF0000080F3118833
:1001D000BDE8084019680868B0E8F20FEFF3148230
:1001E00022F0010242EA010282F3148880F30988B6
:1001F000BFF36F8F704700BF14000020EFF3118032
:100200004FF0200181F31188704780F31188704707
:10021000EFF305807047000010B5002804DB0A07E3
:10022000130EBD4A135406E00A07140EBB4A00F031
:100230000F031B1FD45410BDF0B503460C4603F04A
:100240000701C1F10700042801D9042001E0C1F130
:1002500007000646081D072801D2002000E0C81E3E
:1002600005460120B040401E2040A8400127AF4075
:100270007F1E17403843F0BD002400BF0A2003F062
:100280007BFF04F00300012805D155228021A448FA
:1002900006F0D2FD12E004F00300022805D1AA22E4
:1002A00080219F4806F0C8FD08E004F00300032801
:1002B00004D1A52280219A4806F0BEFD641C99A0B5
:1002C00006F030FEDAE708B501209C49C860400717
:1002D000886000204861C86148627C20C8629848F4
:1002E0000860486002200861002088610862886216
:1002F00000BF642003F040FF9049924801F089FC60
:100300009149924802F027F9914802F075FA02F0FB
:1003100023FF012269468F4803F055F803F0B0F837
:1003200003F044F903F082FB012003F07DFC01207F
:1003300003F042FD88A006F0F5FDDAE71FB50122C3
:100340000321894800F036FC4FF4E130009003208F
:1003500001900020029003906946844801F00FF953
:100360001FBD1CB505208DF8040020200090022040
:100370008DF8050069467C48303000F0B4FC1CBDA7
:1003800094B0002000F010FA062000F02BFA0120B3
:1003900000F087FB012000F0B1FB0121744800F060
:1003A00066F90121084600F0B1F9FFF7C7FF71A017
:1003B00006F0B8FD04200246584B0C3B19684FF676
:1003C000FF031940714B0B4343EA0221534B0C3B93
:1003D000196000BF6E486F490860FFF7C2FF002236
:1003E00011460420FFF728FF044621466FF00B005A
:1003F000FFF712FF002211460420FFF71DFF0446FD
:1004000021466FF00A00FFF707FF00221146042083
:10041000FFF712FF044621466FF00900FFF7FCFECC
:10042000002211460420FFF707FF044621466FF023
:100430000400FFF7F1FE002211460420FFF7FCFE46
:10044000044621466FF00300FFF7E6FE0022072175
:100450000420FFF7F1FE044621466FF00100FFF78C
:10046000DBFE002207210420FFF7E6FE04462146BA
:100470004FF0FF30FFF7D0FE142247490FA806F0D7
:10048000C9FC00210FA803F02FFE44490860142284
:10049000414914310AA806F0BDFC00210AA803F066
:1004A00023FE3E49086014223B49283105A806F086
:1004B000B1FC002105A803F017FE3849086014229A
:1004C00035493C31684606F0A5FC0021684603F03A
:1004D0000BFE3249086003F0EFFD00BFFEE710B5E8
:1004E000044600BF214801F087F90028FAD0E1B2A4
:1004F0001E4801F0C1F8204610BD70B504460D46F7
:100500000A2C02D10D20FFF7EAFF2046FFF7E7FF94
:1005100070BD00BFFEE7000000E400E018ED00E061
:10052000B800002053746172742044656661756C74
:1005300074205461736B2E0A0000000078000020C4
:10054000007001400008004004000020003001401D
:1005500000A00140AC0000206D6F64756C652069DF
:100560006E6974200A00000000D001400060014064
:10057000010010004D483139303220467265655215
:10058000744F532064656D6F2E0A00000000FA0559
:1005900000A24A04100000209CB2000000000020CD
:1005A000704700BFFEE700BFFEE700BFFEE700BFE9
:1005B000FEE770470E480068401C0D490860704710
:1005C0000B480068704731B5FFF7FAFF0546009CFD
:1005D000601C00B1641C00BFFFF7F2FF401BA0428B
:1005E000FAD338BD10B5FFF7E5FF04F005F910BDEB
:1005F0000C00002009480A4908600068854609483F
:100600008047094800470000FEE7FEE7FEE7FEE7F7
:10061000FEE7FEE7FEE7FEE7FEE7FEE7000000007C
:1006200008ED00E07D4000000D01000070B50446BB
:100630000D46F448204008B904B103E02021F2A09F
:10064000FFF767FF0DB1012D00D103E02121EEA0DE
:10065000FFF75FFF2DB1FB4880682043F9498860B0
:1006600004E0F8488068A043F649886070BD70B522
:1006700004460D46F448204008B904B103E0512176
:10068000E1A0FFF746FF0DB1012D00D103E052219B
:10069000DDA0FFF73EFF2DB1EA4840682043E9495D
:1006A000486004E0E7484068A043E649486070BD00
:1006B00070B504460D46E548204008B904B103E092
:1006C0007321D1A0FFF725FF0DB1012D00D103E06B
:1006D0007421CDA0FFF71DFFDA48406904F0704196
:1006E0008843D849486125B108460069204308611C
:1006F00004E0D4480069A043D2490861D148406968
:1007000004F070410843CF49486170BD70B504469C
:100710000D46CD48204008B904B103E0A821BAA095
:10072000FFF7F7FE0DB1012D00D103E0A921B6A01E
:10073000FFF7EFFE2DB1C348C0682043C149C86030
:1007400004E0C048C068A043BE49C86070BD70B531
:100750000446022C00DA03E0CE21ABA0FFF7D9FE5D
:100760006CB9B848006820F0E060B649086000BF86
:10077000B44800680028FBD0FFF7D2FC13E0012C3E
:1007800011D1B048006820F0E06040F08070AD49C1
:100790000860AF48C56845F47F20AD49C860FFF7E1
:1007A000BFFCAB48C56070BD10B504460CB1012C50
:1007B00000D103E0E72194A0FFF7ABFE14B1012CB8
:1007C0000ED106E09F48006820F480509D490860E3
:1007D00006E09C48006840F480509A49086000BFD9
:1007E00000BF10BD10B50446012C0FD0022C0DD057
:1007F000032C0BD0042C09D0052C07D0062C05D0D7
:10080000072C03D0082C01D0092C00D103E0FA21D9
:100810007DA0FFF77EFE0A2C57D2DFE804F0564D8C
:10082000443B322920170E058648006820F4F81052
:1008300040F480108349086047E08248006820F453
:10084000F81040F470207F4908603EE07D48006861
:1008500020F4F81040F460207A49086035E07948C7
:10086000006820F4F81040F45020764908602CE02D
:100870007448006820F4F81040F440207149086082
:1008800023E07048006820F4F81040F430206D49EF
:1008900008601AE06B48006820F4F81040F420204B
:1008A0006849086011E06748006820F4F81040F4D7
:1008B00010206449086008E06248006820F4F810DD
:1008C00040F400205F49086000BF00BF10BD10B5B4
:1008D00004461CB1012C01D0102C00D104E04FF4CF
:1008E000957149A0FFF715FE24B1012C09D0102CF9
:1008F00019D10FE05348006820F440705149086056
:1009000011E05048006820F4407040F480704D4978
:10091000086008E04B48006820F4407040F4007024
:100920004849086000BF00BF10BD4649096801F48E
:10093000F811B1F5801F02D1464901604EE04149EE
:10094000096801F4F811B1F5702F02D14249016034
:1009500044E03C49096801F4F811B1F5602F02D177
:100960003E4901603AE03749096801F4F811B1F5F0
:10097000502F02D13A49016030E03249096801F450
:10098000F811B1F5402F02D13649016026E02D491A
:10099000096801F4F811B1F5302F02D13249016034
:1009A0001CE02849096801F4F811B1F5202F02D1A3
:1009B0002E49016012E02349096801F4F811B1F5EC
:1009C000102F02D12A49016008E01E49096801F48C
:1009D000F811B1F5002F01D12649016019490968C4
:1009E00001F4407111B9016841604FE0154909688F
:1009F00001F44071B1F5807F3ED101684908416042
:100A000044E00000C0FFFFCF2E2E5C2E2E5C2E2E69
:100A10005C2E2E5C4C69627261726965735C4D4834
:100A2000534350555F4472697665725C7372635CC0
:100A30006D68736370755F7379736374726C2E6322
:100A40000000000000F00140F0200A00C0FFFF0D90
:100A500000E0014000CB280C00B0710B0095BA0AF1
:100A6000007A030A005F4C09004495080029DE075C
:100A7000000E270700F36F062B49096801F4407147
:100A8000B1F5007F02D10168890841602649C96A31
:100A90004FF47A72514381602349096B5143C1601D
:100AA00070471FB504460CB1012C00D105E04FF48E
:100AB000A171AFF2AC00FFF72CFD6846FFF735FFE0
:100AC00044B1012C18D11848006840F010001649B4
:100AD000086011E015490198884206D8124800685C
:100AE00020F010001049086005E00F48006840F051
:100AF00010000D49086000BF00BF1FBD10B50446BF
:100B0000012C00D105E04FF4AF71AFF20410FFF7F4
:100B100000FD012C06D10448006820F001000249C4
:100B2000086000BF00BF10BD00F0014080651406E2
:100B300030B589B004462022F94901A806F06AF9C7
:100B4000F84884421BD0F7481030844217D0F5484B
:100B50002030844213D0F348303084420FD0F14823
:100B6000403084420BD0EF485030844207D0ED48EB
:100B70006030844203D0EB487030844200D103E0FF
:100B80001B21E9A0FFF7C5FC002508E001A850F8EB
:100B90002500A04202D1284609B030BD6D1C082DA9
:100BA000F4DB4FF0FF30F7E710B501210805FFF740
:100BB000ADFD10BD2DE9F041064688461746D948DF
:100BC00086421BD0D7481030864217D0D5482030F7
:100BD000864213D0D348303086420FD0D1484030BF
:100BE00086420BD0CF485030864207D0CD48603087
:100BF000864203D0CB487030864200D104E040F2F8
:100C00004F11C9A0FFF785FC4FEA18404FEA00409A
:100C100018B9B8F1000F00D004E04FF4A871C2A0D9
:100C2000FFF777FC012F05D0022F03D0032F01D04F
:100C3000042F00D104E040F25111BBA0FFF769FC82
:100C40003046FFF775FF0546002448E00120A0402C
:100C500000EA080088B3012F06D0022F0FD0032F1F
:100C60001CD0042F39D129E0BD4850F8250062007E
:100C7000032191408843BA4941F825002DE0B84846
:100C800050F8250062000321914088436200012151
:100C900091400843B24941F825001EE0B04850F8A1
:100CA00025006200032191408843620002219140A7
:100CB0000143AB4840F825100FE00FE0A84850F87A
:100CC0002500620003219140884362000321914086
:100CD0000843A34941F8250000BF00BF641C102C45
:100CE000B4D3BDE8F08170B504460D464FF0FF3631
:100CF0008C4884421BD08B481030844217D08948DE
:100D00002030844213D08748303084420FD0854849
:100D1000403084420BD083485030844207D0814811
:100D20006030844203D07F487030844200D103E0B9
:100D30003E217DA0FFF7EDFB28686FF30F0010B98F
:100D4000286800B103E03F2177A0FFF7E2FB287994
:100D500001280BD02879022808D02879032805D04B
:100D60002879052802D02879042800D103E0402101
:100D70006DA0FFF7CEFB6A79288881B22046FFF785
:100D800019FF6879022800D070BD2046FFF7D0FE19
:100D900006462879062855D2DFE800F054030C15E2
:100DA0002A3FA06829680843A060E0682968884352
:100DB000E06047E0A06829680843A060E06829680F
:100DC0000843E0603EE0A06829680843A060E0684E
:100DD00029688843E060206829688843206061486A
:100DE00030F81600298808435E4921F8160029E0EA
:100DF000A06829680843A060E06829680843E060AB
:100E00002068296888432060564830F816002988F1
:100E10000843544921F8160014E0A0682968884363
:100E2000A060E06829688843E0602068296808437A
:100E300020604C4830F8160029688843494921F859
:100E4000160000BF00BF00BF9EE74FF6FF710160B4
:100E5000012101714171704770B505460C4631485A
:100E600085421BD02F481030854217D02D482030A6
:100E7000854213D02B48303085420FD0294840306E
:100E800085420BD027485030854207D02548603036
:100E9000854203D023487030854200D103E08D2184
:100EA00021A0FFF736FB012C25D0022C23D0042CE7
:100EB00021D0082C1FD0102C1DD0202C1BD0402C52
:100EC00019D0802C17D0B4F5807F14D0B4F5007FF2
:100ED00011D0B4F5806F0ED0B4F5006F0BD0B4F51F
:100EE000805F08D0B4F5005F05D0B4F5804F02D024
:100EF000B4F5004F00D103E08E210BA0FFF709FBF2
:100F0000286804EA104008B1012070BD0020FCE709
:100F1000014608684FF6FF7202EA10407047000071
:100F2000ECB2000000D001402E2E5C2E2E5C2E2E46
:100F30005C2E2E5C4C69627261726965735C4D480F
:100F4000534350555F4472697665725C7372635C9B
:100F50006D68736370755F6770696F2E6300000062
:100F600080D101403801002070B505460C46F64896
:100F700085421BD0F4481030854217D0F24820300B
:100F8000854213D0F048303085420FD0EE484030D3
:100F900085420BD0EC485030854207D0EA4860309B
:100FA000854203D0E8487030854200D104E0AC218E
:100FB000AFF28C00FFF7ADFA012C25D0022C23D024
:100FC000042C21D0082C1FD0102C1DD0202C1BD07D
:100FD000402C19D0802C17D0B4F5807F14D0B4F5F4
:100FE000007F11D0B4F5806F0ED0B4F5006F0BD038
:100FF000B4F5805F08D0B4F5005F05D0B4F5804F3C
:1010000002D0B4F5004F00D104E0AD21AFF2E8000A
:10101000FFF77FFA2868204008B1012070BD00204A
:10102000FCE70146086880B270472DE9F0410546AB
:101030000C464FF0FF3600274FF00008C2488542AB
:101040001BD0C1481030854217D0BF4820308542A0
:1010500013D0BD48303085420FD0BB484030854268
:101060000BD0B9485030854207D0B7486030854230
:1010700003D0B5487030854200D104E0CD21AFF2F5
:101080005810FFF746FA012C25D0022C23D0042C4F
:1010900021D0082C1FD0102C1DD0202C1BD0402C70
:1010A00019D0802C17D0B4F5807F14D0B4F5007F10
:1010B00011D0B4F5806F0ED0B4F5006F0BD0B4F53D
:1010C000805F08D0B4F5005F05D0B4F5804F02D042
:1010D000B4F5004F00D104E0CE21AFF2B410FFF719
:1010E00018FA2846FFF724FD0646984830F81600FF
:1010F00000EA0407954830F8160024EA00089348EF
:1011000030F81600204018B1A8683843A86001E004
:10111000C5F80480BDE8F0812DE9F04105460C4694
:101120004FF0FF3600274FF00008874885421BD05C
:1011300085481030854217D083482030854213D02F
:101140008148303085420FD07F48403085420BD0F7
:101150007D485030854207D07B486030854203D0BF
:1011600079487030854200D104E0EB21AFF248208D
:10117000FFF7CFF9012C25D0022C23D0042C21D04D
:10118000082C1FD0102C1DD0202C1BD0402C19D087
:10119000802C17D0B4F5807F14D0B4F5007F11D027
:1011A000B4F5806F0ED0B4F5006F0BD0B4F5805F4E
:1011B00008D0B4F5005F05D0B4F5804F02D0B4F587
:1011C000004F00D104E0EC21AFF2A420FFF7A1F919
:1011D0002846FFF7ADFC06465C4830F8160000EAEA
:1011E00004075A4830F8160024EA0008574830F837
:1011F0001600204018B1A868B843A86002E04FEA82
:1012000008406860BDE8F0812DE9F04104460E46D3
:1012100000256F1E4C4884421BD04B48103084423E
:1012200017D049482030844213D047483030844298
:101230000FD04548403084420BD043485030844260
:1012400007D041486030844203D03F487030844228
:1012500000D105E040F20711AFF23430FFF759F941
:101260002046FFF765FC0746002526E0374830F8A2
:1012700017000121A940084078B10120A840304062
:1012800028B1A0680121A9400843A06014E0A0682B
:101290000121A9408843A0600EE00120A840304011
:1012A00028B121680120A8400143216004E02068A2
:1012B0000121A940884320606D1C102DD6D3BDE8C4
:1012C000F08170B504460D4616461F4884421BD077
:1012D0001D481030844217D01B482030844213D060
:1012E0001948303084420FD01748403084420BD028
:1012F00015485030844207D013486030844203D0F0
:1013000011487030844200D105E04FF49871AFF27B
:10131000E830FFF7FEF8280C000408B905B105E035
:1013200040F23111AFF20040FFF7F3F81EB1E06870
:101330002843E06002E0E068A843E06070BD47F643
:10134000010003490860704700D0014038010020C7
:1013500020D2014070B505460C4616466DB1012DF0
:101360000BD0022D09D0032D07D0042D05D0052D5B
:1013700003D0062D01D0072D00D105E040F27F11EA
:10138000AFF25C40FFF7C5F8200C000408B904B1C7
:1013900005E04FF4C071AFF27040FFF7BAF80EB13C
:1013A000012E00D105E040F28111AFF28440FFF739
:1013B000B0F87EBB082D48D2DFE805F0040B131B04
:1013C000242D363E52480068A0435249C1F82402F9
:1013D0003BE04F48006820EA04404E49C1F824022F
:1013E00033E04B48001D0068A0434A49C1F8280279
:1013F0002BE04748001D006820EA04404549C1F839
:10140000280222E0424808300068A0434149C1F860
:101410002C021AE01AE03E480830006820EA044036
:101420003C49C1F82C0210E039480C300068A04358
:101430003849C1F8300208E035480C30006820EA2D
:1014400004403449C1F8300200BF4AE0082D47D2B9
:10145000DFE805F0040B131B242C353D2C480068F5
:1014600020432C49C1F824023AE02948006840EAA8
:1014700004402849C1F8240232E02548001D0068D4
:1014800020432449C1F828022AE02148001D0068B1
:1014900040EA04401F49C1F8280221E01C480830F6
:1014A000006820431B49C1F82C0219E01848083095
:1014B000006840EA04401749C1F82C0210E01448C3
:1014C0000C30006820431349C1F8300208E010488E
:1014D0000C30006840EA04400E49C1F8300200BFF9
:1014E00000BF70BD10B504460CB1012C00D105E061
:1014F00040F2D711AFF2D050FFF70BF80448001FAD
:10150000006820F0010020430249C1F8200210BD0C
:1015100024D2014000D0014010B50446F84884426E
:1015200008D0F848844205D0F748844202D0F748F2
:10153000844200D103E01821F5A0FEF7EAFFF0484D
:10154000844204D101210846FFF7E0F816E0ED4897
:10155000844204D101210220FFF7D8F80EE0EA48C6
:10156000844204D101210420FFF7D0F806E0E748C7
:10157000844203D101210820FFF7C8F810BD7FB5D0
:1015800005460C46DE48854208D0DE48854205D037
:10159000DD48854202D0DD48854200D103E03A2192
:1015A000DBA0FEF7B6FF206820B1E749206888423B
:1015B00000D203E03B21D6A0FEF7ABFF606840B14C
:1015C0006068012805D06068022802D0606803289E
:1015D00000D103E03C21CEA0FEF79BFFA06848B1FC
:1015E000A068042801D1606820B1A068042802D155
:1015F000606800B103E03D21C5A0FEF78AFFE06806
:1016000028B1E068182802D0E068082800D103E07B
:101610003E21BFA0FEF77DFF6846FFF786F9E86828
:1016200040F08000E86003980009216800EB510059
:10163000B0FBF1F6F0B22860C6F307206860E868F6
:1016400020F08000E860D4E901010843E168084324
:10165000E8607FBD4FF41651016003214160002115
:101660008160C16070471AB143680B43436002E078
:1016700043688B4343607047CAB2026070470146BB
:101680000868C0B2704721B1026942F020020261CD
:1016900003E0026922F0200202617047016941F013
:1016A000010101617047016921F001010161704789
:1016B000016941F0020101617047016921F00201F5
:1016C000016170470A6922B1426842F080024260BB
:1016D00003E0426822F080024260D0F8982042F095
:1016E00001022AB1D0F8982022F00102C0F8982017
:1016F0004A6832B9D0F8942022F00102C0F8942050
:1017000008E04A68012A05D1D0F8942042F001028D
:10171000C0F894208A68C0F89C20CA68C0F8A0204D
:101720000A7832B1D0F8982042F00102C0F898202F
:1017300005E0D0F8982022F00102C0F89820704708
:10174000002101704160022181600321C1600021FC
:10175000016170470246002041F001030BB140F0E7
:10176000040009B140F00200C2F88800704731B1AE
:10177000D0F8982042F00102C0F8982005E0D0F897
:10178000982022F00102C0F898207047014648696D
:10179000704701468869704701468868704701466E
:1017A000486900F0800008B1012070470020FCE784
:1017B0000146486900F0080008B101207047002088
:1017C000FCE70146486900F0040008B101207047B9
:1017D0000020FCE70146486900F0020008B1012042
:1017E00070470020FCE70146486900F0010008B19D
:1017F000012070470020FCE70146486900F04000E6
:1018000008B1012070470020FCE70146486900F05C
:10181000200008B1012070470020FCE7014648691C
:1018200000F0200008B1012070470020FCE70146CD
:10183000C86F00F0100008B1012070470020FCE7DD
:101840000146C86F00F0080008B101207047002071
:10185000FCE70146C86F00F0040008B101207047A2
:101860000020FCE70146C86F00F0020008B101202B
:1018700070470020FCE70146C86F00F0010008B186
:10188000012070470020FCE7D0F8A81041F00101CA
:10189000C0F8A810704731B1D0F8A42042F001027E
:1018A000C0F8A42005E0D0F8A42022F00102C0F87E
:1018B000A420704721B1026F42F00102026703E0E9
:1018C000026F22F00102026770470146486FC0B202
:1018D000704770B504460D460DB1012D00D104E0EE
:1018E0004FF4F5710AA0FEF714FE25B1206940F00F
:1018F0004000206103E0206900F04000206170BDDD
:10190000006001400070014000400440005004406D
:101910002E2E5C2E2E5C2E2E5C2E2E5C4C6962725E
:1019200061726965735C4D48534350555F447269F9
:101930007665725C7372635C6D68736370755F75F6
:101940006172742E6300000021AA4400D0F8901048
:1019500041F00101C0F8901070470000012A0AD13F
:101960004B6803600B6983608B6943600B6A03619A
:101970008B6AC3600BE0022A09D18B6803604B6954
:101980008360CB6943604B6A03610023C360704787
:101990000146FE48081A582290FBF2F201209040BE
:1019A000704710B504462046FFF7F2FFF849096872
:1019B000084008B1012010BD0020FCE720B1012142
:1019C000F34A083A116003E00021F14A083A116035
:1019D000704730B50B460021022A45D1ED4D5C1B06
:1019E000AB4238D016DCEC4DA3EB0504AB4230D053
:1019F00009DCEA4C1C44FCB1B4F5805F1ED0B4F5A0
:101A0000005F30D123E0B4F5805F1ED0B4F5005FF5
:101A100029D119E0B4F5A04F14D006DCB4F5805FED
:101A20001BD0B4F5804F1ED10AE0B4F5104F16D08C
:101A3000B4F5604F17D114E0032114E0052112E042
:101A4000152110E017210EE000BF0B210BE00D2146
:101A500009E00F2107E0112105E0132103E019211E
:101A600001E01F2100BF5DE0012A5BD1C94D5C1B75
:101A7000AB4248D01CDCCA4DA3EB0504AB423ED0C0
:101A80000CDCC84C1C447CB3C74D2C446CB3B4F57F
:101A9000F85F27D0B4F53C5F43D127E0B4F5805F11
:101AA0002FD0B4F5005F28D0B4F5405F39D123E0E2
:101AB000B4F5104F2BD009DCB4F5805F25D0B4F518
:101AC000804F15D0B4F5A04F2BD113E0B4F5604F83
:101AD0001FD0B4F5003F03D0B4F5C42F21D11AE0D4
:101AE00000211EE002211CE017E018E0042118E0AC
:101AF000142116E0162114E000BF0A2111E00C2188
:101B00000FE00E210DE010210BE0122109E0182159
:101B100007E01E2105E01A2103E0012101E0062172
:101B200000BF00BF994CA04207D1A04CA46B24F089
:101B30001F040C439D4DAC6356E0944C5834A042B6
:101B400008D19A4CA46B24F4F85444EA0124974D2C
:101B5000AC6349E08D4CB034A04208D1934CA46BE7
:101B600024F4F81444EA0144904DAC633CE0904CFA
:101B7000A04208D18D4CA46B24F0F85444EA0164CF
:101B80008A4DAC6330E08A4C5834A04207D1874C70
:101B9000246D24F01F040C43844D2C6524E0844CF8
:101BA000B034A04208D1814C246D24F4F85444EAA6
:101BB00001247E4D2C6517E07E4CA04208D17B4C61
:101BC000246D24F4F81444EA0144784D2C650BE0AC
:101BD000784C5834A04207D1744C246D24F0F8544A
:101BE00044EA0164714D2C6530BD70B506460C4663
:101BF00000253046FFF7CCFE054624B145EA052016
:101C00006349086004E0002040EA0520604908605C
:101C100070BD2DE9F0418AB007460E460024A0466B
:101C20000025F06820B101280ED0022817D100E06D
:101C300000BF0122314605A8FFF790FE022231467F
:101C40006846FFF78BFE0AE00222314605A8FFF73F
:101C500085FE012231466846FFF780FE00BF00BFC7
:101C600000213846FFF7C1FF3846FFF791FE0546D1
:101C700047480068284010B10AB0BDE8F0814448E8
:101C8000683805604248603805604148583805604A
:101C90003F48503805603E48483805604548B830F0
:101CA000006828403A49C83909682940084338493A
:101CB000C0390968294008433E49C03109682940B4
:101CC00008433C49B0310968294008433049B039DC
:101CD0000968294008432E49A0390968294008436A
:101CE0002B4998390968294008432949A8390968C6
:101CF000294008432649B83909682940084300B1FA
:101D0000BAE7059838600098B860F8696FF30B007F
:101D1000F861F869F16A0843F86124F4E03409983D
:101D200044EA803424F46054049844EAC02424F43F
:101D3000E004F06820B1012804D0022808D104E0B2
:101D400000BF07E044F4801404E044F4001401E010
:101D500000BF00BF00BF24F07004069844EA0014DE
:101D600024F00E04019844EA400424F4C064079867
:101D700044EA402424F4C074029844EAC014BC61CC
:101D800028F4406848F44068F06815E00008004016
:101D9000A00B0040000004400090014000A0FEBFE6
:101DA0000080014000F0FFBF00CFFEFF00F00140C7
:101DB00008090040100A004078B1F068022804D1F8
:101DC00028F40068089848EAC028F068012804D17F
:101DD00028F48068039848EA8028C7F84080FE48C5
:101DE0000068FD490860FC485830006840F408600D
:101DF000F94958310860F848B030006840F488501C
:101E0000F549B0310860F548006840F4CC50F3491A
:101E10000860F2485830006840F40850EF495831E3
:101E20000860EE48B030006840F42A50EB49B03109
:101E30000860EB48006840F44C50E9490860E84805
:101E40005830006840F46E50E54958310860F06839
:101E500020B13846F2683168FFF7BBFD0120FFF77B
:101E6000ADFD00BF08E770B5054600242846FFF722
:101E70008FFD0446DB480460DA481038046070BD0A
:101E800070B5054600242846FFF782FD0446D54874
:101E900010380460D348046070BD016070478160F1
:101EA00070472DE9F04105460F4690460026002474
:101EB0002846FFF76DFD0446B8F1000F04D0A8696D
:101EC00040F00100A86105E0A86920F00100A861C8
:101ED00024F01F04002630E00121B14001EA070090
:101EE000042816D004DC012807D0022823D10AE0F8
:101EF000082814D010281ED117E044EA0421B94A5A
:101F0000603A116017E044EA0421B64A503A116081
:101F100011E044EA0421B34A483A11600BE044EA74
:101F20000421B04A583A116005E044EA0421AD4A60
:101F3000683A116000BF00BF761C052ECCD3BDE807
:101F4000F08170B506460D4600243046FFF720FDAF
:101F50000446042D12D004DC012D07D0022D19D126
:101F600008E0082D0ED0102D14D10FE09D48383810
:101F700004600FE09B48283804600BE09948203843
:101F8000046007E097483038046003E09548403823
:101F9000046000BF00BF70BD70B505460C4600264A
:101FA000042C12D004DC012C07D0022C19D108E03B
:101FB000082C0ED0102C14D10FE08A4888380668FF
:101FC0000FE08848783806680BE086487038066865
:101FD00007E084488038066803E082489038066845
:101FE00000BF00BF2846FFF7D3FC304008B10120F6
:101FF00070BD0020FCE770B505460C460026042C99
:1020000012D004DC012C07D0022C19D108E0082CD6
:102010000ED0102C14D10FE07148743006680FE018
:102020006F48843006680BE06D488C30066807E026
:102030006B487C30066803E069486C30066800BF76
:1020400000BF2846FFF7A4FC304008B1012070BD56
:102050000020FCE72DE9F0478AB004460F46904681
:102060009A460025A9460026F86820B101280ED01E
:10207000022817D100E000BF0122394605A8FFF76A
:102080006DFC022239466846FFF768FC0AE002222E
:10209000394605A8FFF762FC012239466846FFF77A
:1020A0005DFC00BF00BF00212046FFF79EFD2046DB
:1020B000FFF76EFC06464B4828300068304010B1F0
:1020C0000AB0BDE8F08747484038066045483838D0
:1020D0000660444830380660424828380660414867
:1020E000203806603E487430006830403C498431F6
:1020F0000968314008433A498C3109683140084346
:1021000037497C3109683140084335496C310968E9
:10211000314008433349883909683140084331491F
:1021200078390968314008432E49703909683140CF
:1021300008432C49803909683140084329499039BE
:1021400009683140084300B1BAE70598206000985B
:10215000A060E0696FF30B00E061E069F96A084391
:10216000E06125F4E035099845EA803525F46055AD
:10217000049845EAC02525F4E005F86820B1012857
:1021800004D0022808D104E000BF07E045F4801520
:1021900004E045F4001501E000BF00BF00BF25F0DA
:1021A0007005069845EA001525F00E05019845EAE8
:1021B000400525F4C065079845EA402525F4C0751B
:1021C000029845EAC015A56129F4406949F44069BF
:1021D000F868C0B1F86807E0440800404C090040C6
:1021E000540A0040780B0040022804D129F4006909
:1021F000089849EAC029F868012804D129F48069BF
:10220000039849EA8029C4F84090B7480068B64965
:102210000860B5485830006840F40860B249583149
:102220000860B148B030006840F48850AE49B03121
:102230000860AE48006840F4CC50AC490860AB4838
:102240005830006840F40850A84958310860A74841
:10225000B030006840F42A50A449B0310860A44866
:10226000006840F44C50A2490860A148583000680A
:1022700040F46E509E4958310860F86820B12046FD
:10228000FA683968FFF7A5FB206900F003002061B8
:10229000BAF10A0F7ED2DFE80AF0F0051E37506A65
:1022A00086A0BAD4206900F003002061206C20F0E1
:1022B00080402064206C40F000402064A06920F041
:1022C0008050A061A06920F00060A061E06940F446
:1022D0008050E061EAE0206900F003002061206C9A
:1022E00040F080402064206C20F000402064A06911
:1022F00020F08050A061A06920F00060A061E0693A
:1023000040F48050E061D1E0206900F003002061DA
:10231000206C40F080402064206C40F0004020643D
:10232000A06920F08050A061A06920F00060A06149
:10233000E06940F48050E061B8E0206928F00301D2
:1023400008432061206C20F080402064206C20F045
:1023500000402064A06920F08050A061A06920F0B6
:102360000060A061E06940F48050E0619EE0206977
:1023700028F0030108432061206C20F08040206495
:10238000206C20F000402064A06920F08050A06103
:10239000A06900E070E040F00060A061E06940F4F6
:1023A0008050E06182E0206928F003010843206149
:1023B000206C40F080402064206C20F000402064BD
:1023C000A06920F08050A061A06940F00060A06189
:1023D000E06940F48050E06168E0206928F0030182
:1023E00008432061206C20F080402064206C20F0A5
:1023F00000402064A06940F08050A061A06920F0F6
:102400000060A061E06940F48050E0614EE0206926
:1024100028F0030108432061206C20F080402064F4
:10242000206C40F000402064A06940F08050A06122
:10243000A06920F00060A061E06940F48050E06194
:1024400034E0206928F0030108432061206C20F06B
:1024500080402064206C20F000402064A06940F09F
:102460008050A061A06940F00060A061E06940F484
:102470008050E0611AE000E000BF206900F0030036
:102480002061206C20F080402064206C20F000400F
:102490002064A06920F08050A061A06920F0006055
:1024A000A061E06940F48050E06100BF00BF0120FE
:1024B000FFF784FA00BF03E6F0B5DDE905450B60E0
:1024C0004C60066906F003068E6022F003078E68F2
:1024D0003E438E608669CE600D610E6946F480567B
:1024E0000E6100264E61F0BD440800404C090040DA
:1024F000540A004010B50446B048844203D101217B
:102500004805FEF703F910BD70B504460D461646A2
:102510000EB1012E00D103E04721A9A0FDF7F9FF7C
:1025200066B105EB850004EB8000806840F0010097
:1025300005EB850104EB810188600BE005EB85006C
:1025400004EB8000806820F0010005EB850104EBBE
:102550008101886070BD70B505460C462178002267
:102560002846FFF7D1FF0020217801EB810105EB20
:1025700081018860207800EB800005EB8000806896
:1025800040F00200217801EB810105EB81018860B8
:10259000207800EB800005EB8000806820F00800C8
:1025A000217801EB810105EB81018860217801EB45
:1025B0008101606845F8210070BD70B505460C4684
:1025C000217800222846FFF79FFF0020217801EBA9
:1025D000810105EB81018860207800EB800005EB2C
:1025E0008000806840F00200217801EB810105EB5A
:1025F00081018860207800EB800005EB8000806816
:1026000040F00800217801EB810105EB8101886031
:10261000207800EB800005EB8000806840F004002B
:10262000217801EB810105EB81018860217801EBC4
:102630008101606845F82100227805F1B000A168A9
:1026400040F8221070BD70B504460D4616460EB116
:10265000012E00D103E05D2159A0FDF75AFF66B9B4
:1026600005EB850004EB8000806820F0080005EB96
:10267000850104EB810188600DE0012E0BD105EB93
:10268000850004EB8000806840F0080005EB8501C0
:1026900004EB8101886070BD01EB810340F82320C9
:1026A000704710B501EB810440F8242000F1B0041C
:1026B00044F8213010BD70B504460D4616460EB1E3
:1026C000012E00D103E08D213DA0FDF722FF66B170
:1026D00005EB850004EB8000806820F0040005EB2A
:1026E000850104EB810188600BE005EB850004EBBC
:1026F0008000806840F0040005EB850104EB810157
:10270000886070BD08B501EB810200EB8202D268DF
:10271000009208BD024601EB810002EB80000069D7
:1027200000F0010008B1012070470020FCE70146DD
:10273000D1F8A00070470246D2F8A80001238B40D0
:10274000184008B1012070470020FCE70146D1F88D
:10275000A800704770B504460D4616460EB1012E0E
:1027600000D103E0E32116A0FDF7D3FE66B105EB2F
:10277000850004EB8000806840F0100005EB8501C7
:1027800004EB810188600BE005EB850004EB800021
:10279000806820F0100005EB850104EB8101886062
:1027A00070BD01EB810200EB8202926842F02002D0
:1027B00001EB810300EB83039A6070470030014016
:1027C0002E2E5C2E2E5C2E2E5C2E2E5C4C696272A0
:1027D00061726965735C4D48534350555F4472693B
:1027E0007665725C7372635C6D68736370755F7439
:1027F000696D65722E63000010B50446FD48844281
:1028000002D0FD48844204D101210802FDF77EFF79
:102810001EE0FA48844204D101214015FDF776FFFD
:1028200016E0F748844204D101210015FDF76EFF40
:102830000EE0F448844204D10121C014FDF766FF84
:1028400006E0F148844203D101210803FDF75EFF51
:1028500010BDE849884206D1EC49896921F08071B0
:10286000EA4A916108E0E449884205D1E74989696B
:1028700041F08071E54A9161704770B505460C469C
:10288000206858B12068B0F5807F07D02068B0F587
:10289000007F03D02068B0F5407F00D103E03921EC
:1028A000DBA0FDF736FEA0680F2802D0A06807283D
:1028B00000D103E03A21D6A0FDF72BFE6069012884
:1028C00001D0606900B903E03B21D1A0FDF721FEF2
:1028D000E06810B1E068802800D103E03C21CCA082
:1028E000FDF717FE206910B12069402800D103E0F0
:1028F0003D21C7A0FDF70DFEA069022815D0A069F3
:10290000042812D0A06908280FD0A06910280CD084
:10291000A069202809D0A069402806D0A069802895
:1029200003D0A069B0F5807F00D103E03E21B8A0BC
:10293000FDF7EFFDE06960B3E069012829D0E069A7
:10294000022826D0E069032823D0E069042820D09B
:10295000E06905281DD0E06906281AD0E06907283B
:1029600017D0E069082814D0E069092811D0E0697F
:102970000A280ED0E0690B280BD0E0690C2808D09B
:10298000E0690D2805D0E0690E2802D0E0690F2823
:1029900000D103E03F219EA0FDF7BBFD206A60B39C
:1029A000206A012829D0206A022826D0206A03281C
:1029B00023D0206A042820D0206A05281DD0206A50
:1029C00006281AD0206A072817D0206A082814D0B1
:1029D000206A092811D0206A0A280ED0206A0B2804
:1029E0000BD0206A0C2808D0206A0D2805D0206A58
:1029F0000E2802D0206A0F2800D803E0402184A0CE
:102A0000FDF787FD0020A860E8622088A1890843BF
:102A1000218A0843218908432880A0696861606988
:102A20002861E069E861206AA8612846FFF711FF84
:102A300070BD00210160072181600021C16001613A
:102A400001214161022181610021C1610162704760
:102A500070B505460C460CB1012C00D103E078217D
:102A60006BA0FDF756FD14B10120A86001E0002025
:102A7000A86070BD70B505460C464FF6FC71206825
:102A8000084010B9206800B103E0912160A0FDF773
:102A900040FD00BF60680F2800D803E092215CA0D1
:102AA000FDF737FD00BFA0680F2800D803E0932191
:102AB00057A0FDF72EFD207B10B1207B012800D10F
:102AC00003E0942152A0FDF724FD60686865A068CA
:102AD0002865207B20B1E86C21680843E86403E0A6
:102AE000E86C21688843E86470BD03210160072118
:102AF00041600821816000210173704770B5044670
:102B00000D4616464FF6FC70284008B905B103E0A3
:102B1000BF213FA0FDF7FDFC0EB1012E00D103E067
:102B2000C0213BA0FDF7F5FC1EB1E06C2843E0643A
:102B300002E0E06CA843E06470BD70B505460C4649
:102B40001646012C09D0022C07D0102C05D0042CDD
:102B500003D0082C01D0202C00D103E0DF212CA0D1
:102B6000FDF7D7FC0EB1012E00D103E0E02128A033
:102B7000FDF7CFFC1EB1E86A2043E86202E0E86A94
:102B8000A043E86270BD016670470146086E80B2DE
:102B9000704770B504460D460F2D01D0072D00D1AA
:102BA00004E04FF48A711AA0FDF7B3FC208820F0EE
:102BB0000F00208020882843208070BD70B5054616
:102BC0000C4644B1B4F5807F05D0B4F5007F02D047
:102BD000B4F5407F00D104E040F229110CA0FDF7CC
:102BE00098FC288820F4407028802888204328807A
:102BF00070BD000000A0014000B001400080014015
:102C000000900140000004400010044000F001402A
:102C10002E2E5C2E2E5C2E2E5C2E2E5C4C6962724B
:102C200061726965735C4D48534350555F447269E6
:102C30007665725C7372635C6D68736370755F73E5
:102C400070692E630000000070B505460C46012C2B
:102C500009D0022C07D0102C05D0042C03D0082C4E
:102C600001D0202C00D105E04FF4A071AFF260003C
:102C7000FDF74FFC286B204008B1012070BD0020FB
:102C8000FCE770B505460C46012C09D0022C07D094
:102C9000102C05D0042C03D0082C01D0202C00D1FE
:102CA00005E040F25B11AFF29800FDF732FC44F012
:102CB000200000B1686C44F0040000B1286C44F0BE
:102CC000080000B1E86B44F0020000B1A86B70BDD1
:102CD00070B505460C46082C07D0102C05D0042CE6
:102CE00003D0022C01D0012C00D105E040F271117B
:102CF000AFF2E400FDF70DFCA86A204008B1012006
:102D000070BD0020FCE70146886A70470146886A6A
:102D100000F0010008B1012070470020FCE70146E7
:102D2000886A00F0200008B1012070470020FCE70D
:102D30000146886A00F0400008B101207047002079
:102D4000FCE770B505460C46206858B12068B0F520
:102D5000807F07D02068B0F5007F03D02068B0F5F1
:102D6000407F00D105E04FF4D471AFF25C10FDF765
:102D7000D0FB60680F2802D06068072800D105E00A
:102D800040F2A911AFF27810FDF7C3FBA06801284B
:102D900001D0A06800B905E04FF4D571AFF29010F2
:102DA000FDF7B7FBE068022815D0E068042812D0D0
:102DB000E06808280FD0E06810280CD0E0682028D0
:102DC00009D0E068402806D0E068802803D0E06899
:102DD000B0F5807F00D105E040F2AB11AFF2D0102A
:102DE000FDF797FB206960B32069012829D020698D
:102DF000022826D02069032823D02069042820D067
:102E0000206905281DD0206906281AD020690728C6
:102E100017D02069082814D02069092811D020690A
:102E20000A280ED020690B280BD020690C2808D066
:102E300020690D2805D020690E2802D020690F28AE
:102E400000D105E04FF4D671AFF23C20FDF761FBF5
:102E5000606960B36069012829D06069022826D0C2
:102E60006069032823D06069042820D060690528A0
:102E70001DD0606906281AD06069072817D06069DC
:102E8000082814D06069092811D060690A280ED07A
:102E900060690B280BD060690C2808D060690D2888
:102EA00005D060690E2802D060690F2800D805E0BF
:102EB00040F2AD11AFF2A820FDF72BFB0020A86077
:102EC0002069E8616069A8612088A188084328809A
:102ED000E0686861A0682861288840F010002880B8
:102EE0002846FFF7B6FC70BD002101600721416054
:102EF000012181600221C1600021016141617047AF
:102F000070B505460C462068012802D020680228CA
:102F100000D105E04FF4F071AFF20C30FDF7F9FA93
:102F20006068012802D06068022800D105E040F204
:102F3000E111AFF22430FDF7ECFAA068072802D0C7
:102F4000A0680F2800D105E04FF4F171AFF24030D6
:102F5000FDF7DFFAE068072802D0E0680F2800D10B
:102F600005E040F2E311AFF25830FDF7D2FA2069E4
:102F7000012801D0206900B905E04FF4F271AFF2E9
:102F80007030FDF7C6FA6069022815D06069042820
:102F900012D0606908280FD0606910280CD06069D1
:102FA000202809D06069402806D06069802803D0B5
:102FB0006069B0F5807F00D105E040F2E511AFF225
:102FC000B030FDF7A6FA207E10B1207E012800D196
:102FD00005E04FF4F371AFF2C830FDF79AFAE069FB
:102FE00060B3E069012829D0E069022826D0E069B1
:102FF000032823D0E069042820D0E06905281DD0EB
:10300000E06906281AD0E069072817D0E069082887
:1030100014D0E069092811D0E0690A280ED0E069CF
:103020000B280BD0E0690C2808D0E0690D2805D0EA
:10303000E0690E2802D0E0690F2800D105E040F2D7
:10304000E711AFF23440FDF764FA206A60B3206AFA
:10305000012829D0206A022826D0206A032823D0FC
:10306000206A042820D0206A05281DD0206A06285E
:103070001AD0206A072817D0206A082814D0206A9E
:10308000092811D0206A0A280ED0206A0B280BD0FC
:10309000206A0C2808D0206A0D2805D0206A0E2846
:1030A00002D0206A0F2800D805E04FF4F471AFF287
:1030B000A040FDF72EFA0020A860E069E861206AD0
:1030C000A8612089217B40EA01302880606968611D
:1030D00020692861207E20B1E86840F00400E860A3
:1030E00003E0E86820F00400E8602068012804D1CB
:1030F000E86840F00200E86006E02068022803D19A
:10310000E86820F00200E8606068022804D1E868FE
:1031100040F00100E86006E06068012803D1E8683B
:1031200020F00100E860288840F020002880284630
:10313000FFF78FFB70BD0221016001214160072173
:103140008160C1600121016102214161002101769C
:10315000C1610162704700006E48006800F0010024
:1031600008B1012070470020FCE770B504460B460B
:103170000021FFF7F1FF08B9002070BDD01810281A
:1031800001D90020F9E7002107E054F82100551883
:10319000604E803E46F82500491C9942F5D3012037
:1031A000EBE730B504460B460021FFF7D5FF08B921
:1031B000002030BDD018102801D90020F9E70021E7
:1031C00007E05018534D803D55F8200044F8210089
:1031D000491C9942F5D30120EBE710B5044604F0F1
:1031E000010010B904F0020000B103E05F214AA021
:1031F000FDF78FF94748001D006820434549803995
:10320000C1F8840000BF4348001D00680028FAD1BF
:1032100010BD70B504460D4604F0010010B904F06D
:10322000020000B103E071213BA0FDF772F945B146
:1032300038480C300068204336498039C1F88C008A
:1032400007E034480C300068A04332498039C1F8A7
:103250008C0070BD70B504460D4604F0010010B935
:1032600004F0020000B103E089212BA0FDF751F921
:1032700045B1284808300068204326498039C1F804
:10328000880007E0234808300068A04321498039BE
:10329000C1F8880070BD70B504460D46012C04D0FD
:1032A00024F01F0008B904B103E0A4211AA0FDF71F
:1032B00030F945B11748143000682043154980396A
:1032C000C1F8940007E0134814300068A043114986
:1032D0008039C1F8940070BD0E481430006840F089
:1032E00001000C498039C1F89400704710B50446BC
:1032F00024F01F0008B904B103E0C92106A0FDF7BE
:1033000008F9044814300068204008B1012010BDBD
:103310000020FCE7800003402E2E5C2E2E5C2E2E1B
:103320005C2E2E5C4C69627261726965735C4D48FB
:10333000534350555F4472697665725C7372635C87
:103340006D68736370755F62706B2E6300000000C0
:1033500030B503460020062B25D2DFE803F0240316
:103360000910171D0C24454D2C6000246C601BE0D7
:103370000C24424D2C604FF6FF746C6014E0012465
:103380003E4D2C604FF6FF746C600DE001243B4D08
:103390002C6000246C6007E01E24384D2C604FF038
:1033A000FF346C6000E000BF00BF04E011F8014B87
:1033B000324D2C72521E002AF8D1304CA068052BD9
:1033C00000D080B230BD30B50346002000242B4D24
:1033D0002C601C78012C04D0022C06D0032C0FD1B9
:1033E0000AE00124254D2C600AE0244C246824F0D6
:1033F0000104224D2C6003E00224204D2C6000BF0C
:1034000000BF5C78022C06D11C4C246844F00C04EC
:103410001A4D2C6005E0194C246824F00C04174D5B
:103420002C601C78012C02D01C78022C04D19C88C2
:10343000A4B2124D6C6005E01C78032C02D10F4D34
:103440005C686C6004E011F8014B0C4D2C72521E4C
:10345000002AF8D1094CA0681C78012C02D01C78F5
:10346000022C04D11C89A4B2604080B204E01C7814
:10347000032C01D19C68604030BD00000020014059
:10348000002009E00022394941F830204FF6FF7250
:1034900001EBC0014A60401C0828F3D370472DE9B6
:1034A000F04104460F4615466CB1012C0BD0022C9E
:1034B00009D0032C07D0042C05D0052C03D0062CF2
:1034C00001D0072C00D103E0392129A0FDF721F814
:1034D000380C000408B907B103E03A2124A0FDF735
:1034E00018F82DB1012D03D0022D01D0032D00D1EC
:1034F00003E03B211EA0FDF70CF8002618E0012098
:10350000B040384098B1194850F834007200032197
:1035100091408843154941F83400084650F834007A
:10352000710005FA01F10843104941F83400761C96
:10353000102EE4D3BDE8F0810020002105E01A4AF6
:1035400052F821208A401043491C0829F7D37047BC
:103550000146064800EBC100406870474FF6FF7215
:10356000024901EBC0014A607047000000D80140E9
:103570002E2E5C2E2E5C2E2E5C2E2E5C4C696272E2
:1035800061726965735C4D48534350555F4472697D
:103590007665725C7372635C6D68736370755F658A
:1035A0007874692E630000000CD10140494800681E
:1035B00000F0080008B1012070470020FCE700B5CA
:1035C00000BFFFF7F3FF0028FBD04248006840F03F
:1035D00010004049A039C1F8A00000BD00B500218D
:1035E00000BFFFF7E3FF0028FBD03A48006840F037
:1035F0000200384AA03AC2F8A00036480C300168F0
:103600001046D0F8A00020F00200324A10600846B0
:1036100000BD00B5014600BFFFF7C8FF0028FBD082
:103620002C480830016000BD00B5014600BFFFF71F
:10363000BDFF0028FBD02748001D016000BD00B57C
:1036400000BFFFF7B3FF0028FBD02248001D006831
:1036500000BD10B504460CB1012C00D103E0692176
:103660001DA0FCF756FF00BFFFF7A0FF0028FBD00E
:1036700044B11848006840F004001649A039C1F868
:10368000A00007E01348006820F004001149A039A9
:10369000C1F8A00010BD00B500BFFFF787FF0028EC
:1036A000FBD000200B491031086000BD09480068BC
:1036B00000F0010008B1012070470020FCE700B5D0
:1036C00000BFFFF773FF0028FBD0024818300068E6
:1036D00000BD0000A00003402E2E5C2E2E5C2E2E7E
:1036E0005C2E2E5C4C69627261726965735C4D4838
:1036F000534350555F4472697665725C7372635CC4
:103700006D68736370755F7274632E6300000000F0
:10371000F848006800F0004008B101207047002020
:10372000FCE7F0B501460024002300250026FFF742
:10373000EFFF012801D10320F0BDD1E90107384096
:1037400008B10120F8E700220CE04FEA420C032701
:1037500007FA0CF78868384018B157000120B840C4
:103760000443521C042AF0D3087844EA0034E148A8
:1037700090380460001D006820F440500F6940EA52
:103780000730DD4FC7F8C400DA488C38006820F4F1
:1037900040000F8D40EA8750D74FC7F8C400D54886
:1037A0008C38006820F440308F8D40EA0740D14FBC
:1037B0008C3F3860087D30B13846006840F4802086
:1037C000CD4FC7F8C400CB488C38036823F40023DE
:1037D00023F080700F7E40EA076323F440100F8CC3
:1037E00040EA075391F8240008B143F4002323F082
:1037F000806391F8250008B143F08063BD488C38A0
:103800000360087B08B1AA2600E05526D1E901072C
:1038100040EA070500220EE001209040284020B138
:10382000B4484C3840F8226004E05527B1484C3881
:1038300040F82270521C082AEED300207CE718B50D
:1038400002460B4600200090FFF762FF012801D1DD
:10385000032018BD13B1AA20009001E0552000906C
:10386000002109E001208840104020B1A1484C38D7
:10387000009C40F82140491C0829F3D30020E8E7C8
:1038800010B504460CB1012C00D103E0DA219BA055
:10389000FCF73FFE44B997488C38006820F400409C
:1038A0009549C1F8C40009E0012C07D191488C3832
:1038B000006840F400409049C1F8C40010BD0146C2
:1038C00019B1AA208B4A106002E05520894A106085
:1038D00000207047F8B505460E460020009025F000
:1038E0007F0008B905B104E04FF48A7183A0FCF7AA
:1038F00010FE16B1AA20009001E05520009000248F
:1039000014E00120A040284078B17A484C3804F1F6
:103910000C0150F8210020F0FF0000990843754980
:103920004C3904F10C0241F82200641C072CE8D346
:1039300005F0200090B1012E08D16E484C38406C43
:1039400020F000416B484C38416407E069484C382E
:10395000406C40F0004167484C3841640020F8BD9D
:1039600010B5044624F0FF0008B904B104E040F2A9
:10397000391162A0FCF7CDFD5E48001D046010BD4A
:10398000014639B1B1F1FF3F04D05A4868380160AF
:10399000002070470120FCE756488838006840F056
:1039A00001005549C1F8C80070475248783800688E
:1039B00020F000405049C1F8D8000846D0F8D400A3
:1039C00040F00100C1F8D400704710B5044640F63D
:1039D000FF70844217D0B4F5805F14D0B4F5005F57
:1039E00011D0B4F5804F0ED0B4F5004F0BD0B4F524
:1039F000803F08D0B4F5003F05D0B4F5802F02D049
:103A0000B4F5801F00D104E040F269113BA0FCF73F
:103A100080FD384884380068204008B1012010BD7E
:103A20000020FCE7334884380068704700203149A3
:103A30008439086070472F488C38006800F0806037
:103A400008B1012070470020FCE740B929498C39B2
:103A5000096821F08061284AC2F8C41007E02549AE
:103A60008C39096841F08061234AC2F8C41070475C
:103A700020488C38006800F4802008B1012070478D
:103A80000020FCE740B91B498C39096821F48021EA
:103A9000194AC2F8C41007E016498C39096841F484
:103AA0008021154AC2F8C410704712488C3800684B
:103AB00000F0807008B1012070470020FCE7012869
:103AC00008D10C498C39096841F080710A4AC2F862
:103AD000C41007E007498C39096821F08071064A53
:103AE000C2F8C410704703488C380068C0F3015016
:103AF0007047000050010340000003402E2E5C2E52
:103B00002E5C2E2E5C2E2E5C4C6962726172696591
:103B1000735C4D48534350555F4472697665725CDF
:103B20007372635C6D68736370755F73656E736FDA
:103B3000722E63002749096860F31551254AC43A7B
:103B4000C2F8C410704723480068C0F301407047B2
:103B50002049096860F311411E4AC43AC2F8C410F2
:103B600070471C480068C0F38150704719490968C4
:103B700060F39751174AC43AC2F8C4107047154809
:103B80000068C0F3013070471249096860F30D31D5
:103B9000104AC43AC2F8C41070470E48006800F4D6
:103BA000002008B1012070470020FCE740B9094916
:103BB000096821F40021074AC43AC2F8C41007E09A
:103BC0000449096841F40021024AC43AC2F8C41009
:103BD00070470000C400034070B505460C4601263E
:103BE00004B903E01D2152A0FCF793FC5E48006875
:103BF0005E4951F824100840A0B15B48001D50F800
:103C0000240028605848001D50F824006860564879
:103C1000001D50F82400A8605348001D50F82400EF
:103C2000E8600026304670BD4F490861704770B5A6
:103C300004460D4604B903E03E213DA0FCF769FCB3
:103C40000DB1012D00D103E03F2139A0FCF761FC4B
:103C500045B14548C068464951F8241008434249D7
:103C6000C86007E04048C068414951F824108843C3
:103C70003D49C86070BD30B13B49096841F0100151
:103C8000394A116005E03849096821F01001364AC7
:103C90001160704710B50446012C01D0042C00D1EE
:103CA00003E0682122A0FCF734FC2F480068204084
:103CB00008B1012010BD0020FCE710B50446012C1E
:103CC00001D0042C00D103E07F2119A0FCF721FCD6
:103CD00025480068A0432449086010BD10B504467B
:103CE00004B903E08A2112A0FCF713FC1E48C06847
:103CF000204951F8241088431B49C86008460068D1
:103D00001A4951F8241088431749086010BD10B5AE
:103D1000044604B903E0972105A0FCF7FAFB12481A
:103D2000C068144951F8241008430F49C86010BDF9
:103D30002E2E5C2E2E5C2E2E5C2E2E5C4C6962721A
:103D400061726965735C4D48534350555F447269B5
:103D50007665725C7372635C6D68736370755F74B3
:103D6000726E672E6300000000E0014014B3000093
:103D700010B300000CB3000010B50446207810B159
:103D80002078012800D103E01021AAA0FCF7C1FB94
:103D90004FF08040806820F03F002178012901D158
:103DA000002100E0102108434FF08041886047F671
:103DB000FF70AE49086010BD0146AC48001F0068A6
:103DC00010B109B1012070470020FCE700F4802108
:103DD00041B1A649091F096841F480214FF0804292
:103DE000C2F8041100F4003141B1A049091F09686B
:103DF00041F400314FF08042C2F8041100F48031E8
:103E000041B19A49091F096841F480314FF080425D
:103E1000C2F8041100F4004141B19449091F096836
:103E200041F400414FF08042C2F8041120F4F02028
:103E30008E49086070478D497C310860704770B5C5
:103E400005460C46012C03D0022C01D0032C00D1D6
:103E500003E0452177A0FCF75CFB012C0ED18348E1
:103E6000F430006840EA0510A107C1F8FC010846DB
:103E7000D0F8FC01A843C1F8FC011CE0022C0ED1D3
:103E80007A48F430006820EA05106107C1F8FC01A7
:103E90000846D0F8FC012843C1F8FC010BE0032CD4
:103EA00009D17248F430006845EA051108434FF023
:103EB0008041C1F8FC0170BD70B504460E46AA25CC
:103EC00024F00F0008B904B103E05C2159A0FCF70D
:103ED00020FB0EB1AA2500E0552504F0010040B1F9
:103EE0006348006820F0FF0028434FF08041C1F88C
:103EF000F00304F0020048B15D48006820F47F4000
:103F000040EA05204FF08041C1F8F00304F00400BE
:103F100048B15748006820F47F0040EA05404FF060
:103F20008041C1F8F00304F0080038B1504800683F
:103F300065F31F604FF08041C1F8F003002070BDB1
:103F400010B5044624F00F0008B904B103E07D2148
:103F500038A0FCF7DEFA4648001F046010BD10B51B
:103F600004460CB1012C00D103E0842131A0FCF700
:103F7000D0FA44B94FF08040806820F080504FF074
:103F80008041886007E0012C05D1A007806840F0DF
:103F90008050A107886010BD70B505460C4625F01D
:103FA0000F0008B905B103E0922122A0FCF7B1FA95
:103FB0000CB1012C00D103E093211EA0FCF7A9FA5B
:103FC00005F0010050B12948001D006820F4805020
:103FD00040EA04304FF08041C1F80C0105F00200C6
:103FE00050B12248001D006820F4005040EA4430DF
:103FF0004FF08041C1F80C0105F0040050B11B489E
:10400000001D006820F4804040EA84304FF0804179
:10401000C1F80C0105F0080050B11448001D0068FB
:1040200020F4004040EAC4304FF08041C1F80C0158
:1040300070BD00002E2E5C2E2E5C2E2E5C2E2E5C73
:104040004C69627261726965735C4D4853435055A7
:104050005F4472697665725C7372635C6D687363EA
:1040600070755F7373632E630000000008010040E9
:10407000F0030040024803490860704770470000A1
:10408000006CDC021000002001460020842901D0D1
:10409000CA1C10447047014684200A46062A02D8EA
:1040A0000A46D21E10B2704700BFEFF3058008B178
:1040B000012070470020FCE710B501F09FFE0020B2
:1040C00010BD10B502F008F9012801D1002010BD83
:1040D0000120FCE710B5FFF7E7FF10B101F0CDFEBE
:1040E00010BD01F0C7FEFBE7FEB504460D46B4F96E
:1040F0000800FFF7C9FF064602A8CDE90060238A41
:104100009AB22B46D4E9001001F0A6F9012801D09B
:104110000020FEBD0298FCE710B502F0DAF810BDF1
:1041200010B50446204601F0E5F9002010BD10B599
:1041300002F0CDFD002010BD70B505460C462046AE
:10414000FFF7A2FF06463146284601F05BFC00203F
:1041500070BD70B50446FFF7A7FF30B1204601F0EF
:104160003CFC0546FFF797FF70BD204601F026FC9A
:104170000546FFF790FFF7E770B5044625460DB1F9
:10418000294600E00121084601F0C3FB002070BD74
:1041900003460020704702460020FF20704701467A
:1041A0000020FF20704701460020FF2070473EB5E9
:1041B00004460D46002002900190FFF775FF98B16C
:1041C00002A801AB012229460090204602F053FAD2
:1041D000012802D04FF000403EBD029878B14FF068
:1041E0008050FC4908600AE001AB012229462046C4
:1041F00002F0D4F9012802D04FF00040ECE701981A
:10420000EAE7FEB506460F46144600200190002559
:10421000601C08B96D1E03E014B1254605B90125DF
:10422000FFF742FF10B18220009016E02B4601AA52
:104230003946002002F06DF9012806D015B900209A
:1042400000900AE04020009007E00198002802DA80
:104250008620009001E0082000909DE8070086E895
:104260000700FEBD10B50446012000F031FD10BD71
:10427000F8B506460C46002000900EB98020F8BD27
:104280000025601C08B96D1E03E014B1254605B970
:104290000125FFF709FF78B16A460021304600F09A
:1042A000CEFE012801D0FF20E9E7009870B14FF061
:1042B0008050C849086009E000232A461946304664
:1042C00000F0FAFD012801D0FF20D8E70020D6E752
:1042D00038B50446002500200090FFF7E5FE70B1D8
:1042E0006946204600F06BFD012801D0FF2038BD53
:1042F000009868B14FF08050B649086008E000238C
:104300001A461946204600F021FC012800D0FF255E
:104310002846ECE710B50446FFF7C6FE08B1822038
:1043200010BD204600F06CFF0020F9E770B506468E
:104330000D46012D0ED103220021012000F051FB7A
:1043400004462CB100231A461946204600F0FEFB15
:10435000204670BD0020FCE7F8B506460C4600205C
:1043600000900EB98020F8BD0025601C08B96D1EB4
:1043700003E014B1254605B90125FFF795FE78B194
:104380006A460021304600F05AFE012801D0FF2085
:10439000E9E7009870B14FF080508E49086009E05D
:1043A00000232A461946304600F086FD012801D038
:1043B000FF20D8E70020D6E738B5044600250020C6
:1043C0000090FFF771FE70B16946204600F0F7FCDF
:1043D000012801D0FF2038BD009868B14FF080500F
:1043E0007C49086008E000231A461946204600F080
:1043F000ADFB012800D0FF252846ECE710B50446A8
:10440000FFF752FE08B1822010BD204600F0F8FEF2
:104410000020F9E72DE9F04105466868C01C8008D6
:104420008700142002F0D9FA04461CB32868A06063
:10443000E76000202061286802F0CFFA60606068C1
:10444000C8B1296801FB07F002F0C7FA20602068B4
:1044500048B1002603E0002061688855761C286872
:10446000B042F8D80BE0606802F042FB204602F050
:104470003FFB002403E0204602F03AFB00242046E4
:10448000BDE8F0812DE9F04104460027B846FFF76A
:104490000BFE18B1FBF7B2FE074601E002F021FC6B
:1044A000002612E020698519A068A84200D80025DE
:1044B0006068405D40B9012061684855E168206846
:1044C00005FB0108256103E0761CA068B042E9D82D
:1044D00000BFFFF7E9FD18B13846FBF796FE01E093
:1044E00002F02EFC4046BDE8F08170B50546284636
:1044F000FFF7C8FF04460CB100202060204670BDC5
:1045000010B502460B460AB9802010BD0BB98020B9
:10451000FBE71068984201D98020F6E71068191A65
:10452000D068B1FBF0F400FB141008B18020ECE778
:10453000D068B1FBF0F19068884201D88020E4E7B0
:1045400000205468605400BFDFE770B504460D4694
:104550000022D4E9000100F044FA70BD77B581B0C3
:104560000646144600200090254605B90125FFF7B0
:104570009BFD88B100236A4602A9304600F0B9FBD2
:10458000012802D0FF2004B070BD009870B14FF038
:1045900080501049086009E000232A4602A93046ED
:1045A00000F0D4FA012801D0FF20ECE70020EAE770
:1045B0002DE9FF4107460D46144602950020019063
:1045C00055B9802000909DE8070087E80700BDE806
:1045D000FF81000004ED00E0002003900026601C35
:1045E00008B9761E03E014B1264606B90126FFF786
:1045F0005BFD90B103AA01A9284600F020FD012827
:1046000002D11020009001E0002000900398A0B19A
:104610004FF08050C74908600FE00023324601A9DF
:10462000284600F049FC012802D11020009004E047
:104630000EB9002000E0402000909DE8070087E8C8
:10464000070000BFC3E73EB504460D4600200090BA
:104650000190029020680090606801900C2002F0A8
:10466000BCF9A1680860A068006808B900203EBDD8
:10467000A0680068046000220421206800F0B1F9FD
:10468000A16809684860A0680068406828B9A16806
:10469000086802F02DFA0020E9E76846FFF7BAFE45
:1046A000A16809688860A0680068806828B9A16866
:1046B000086802F01DFA0020D9E7A0680068D6E774
:1046C00070B504460E460CB9002070BDA068FFF717
:1046D000D9FE05462846F8E72DE9F04106460F4683
:1046E00039463046FFF7ECFF054645B1002402E0AD
:1046F00000202855641C30684068A042F8D828463D
:10470000BDE8F08113B582B0044614B9802004B02E
:1047100010BD00200190FFF7C7FC80B1002301AA63
:1047200003A9606800F0E5FA012801D0FF20EEE758
:10473000019870B14FF080507E49086009E0002375
:104740001A4603A9606800F001FA012801D0FF2091
:10475000DDE70020DBE72DE9FF4107460C46154663
:1047600002943CB9802000909DE8070087E807008C
:10477000BDE8FF81002003900026681C08B9761E62
:1047800003E015B12E4606B90126FFF78DFC90B166
:1047900003AA01A9606800F052FC012802D1202080
:1047A000009001E0002000900398A0B14FF08050ED
:1047B000604908600FE00023324601A9606800F0FC
:1047C0007BFB012802D12020009004E00EB90020DC
:1047D00000E0402000909DE8070087E8070000BF48
:1047E000C6E730B504460D460CB9802030BD2946D9
:1047F000A068FFF785FEF9E710B501F06DFD01280F
:1048000001D002F0B9FA10BD10B50446204601F0FF
:10481000C8F9002010BD10B50446FFF745FC40B1B3
:10482000204601F074FA012806D1000741490860CA
:1048300002E0204601F034FA002010BD10B501F06E
:104840000DF8002010BD10B500F062FF012801D165
:10485000002010BDFF20FCE770B505460C4626463B
:104860000EB1304600E001200146284600F0FCFF72
:10487000002070BD0146812070470146002070472E
:10488000FEB507460D461446029535B980200090C6
:104890009DE8070087E80700FEBD0026601C08B9F8
:1048A000761E03E014B1264606B9012601233246DE
:1048B00001A9284600F000FB012802D11020009039
:1048C00004E00EB9002000E0402000909DE80700C1
:1048D00087E8070000BFDFE710B50446FFF7E4FBF9
:1048E00018B1204600F068FC10BD204600F03DFCE9
:1048F000FAE710B50446204600F049FC10BD10B59B
:104900000446FFF7D1FB08B1822010BD204600F01D
:1049100077FC0020F9E7014600207047014681201E
:10492000704702468120704710B50446204600F0CB
:104930001CFC10BD04ED00E070B505460E462C468B
:104940003CB900BF02F028F9FBF758FC00BF00BFDC
:10495000FEE702F0C6F9D4E90F12206801FB02005D
:1049600060600020A0632068A060E06B401E226CA5
:10497000216800FB0210E060FF2084F8440084F806
:1049800045006EB9206908B9012000E0002078B91F
:1049900004F1100001F0BAFB50B102F098F907E001
:1049A00004F1100001F06EFF04F1240001F06AFF31
:1049B00002F0C6F9012070BD2DE9F04106460D4612
:1049C00017469846069C0DB9246000E02760E66310
:1049D000256401212046FFF7AFFF84F84C80BDE835
:1049E000F0812DE9F84305460E4690460DB10120B1
:1049F00000E0002038B900BF02F0CEF8FBF7FEFB64
:104A000000BF00BFFEE70EB9002701E005FB06F777
:104A100007F1500001F0E1FF044644B104F15009F0
:104A200043464A46314628460094FFF7C5FF2046D4
:104A3000BDE8F88370B5044602F053F994F9455087
:104A400010E0606A08B9012000E0002038B904F1E4
:104A5000240001F05BFB18B101F02CFC00E003E046
:104A6000681E45B2002DECDC00BFFF2084F8450035
:104A700002F066F902F035F994F9445010E020692B
:104A800008B9012000E0002048B904F1100001F04D
:104A90003DFB08B101F00EFC681E45B200E001E0EC
:104AA000002DECDC00BFFF2084F8440002F048F940
:104AB00070BD70B5054602F014F9A86BE96B884229
:104AC00001D1012400E0002402F03AF9204670BD33
:104AD0002DE9F04104460F4615464FF00008A66B3D
:104AE000206C40B9206860BB606801F053FC8046D0
:104AF0000020606025E07DB93946226CA06802F094
:104B000089F9216CA0680844A060D4E901108842AA
:104B100017D32068A06014E03946226CE06802F0E8
:104B200079F9216CE068401AE0602168E068884209
:104B300003D2216C6068401AE060022D01D106B1F9
:104B4000761E701CA0634046BDE8F0812DE9FF434E
:104B500083B0064688461D464FF0000934463CB9EE
:104B600000BF02F019F8FBF749FB00BF00BFFEE7EA
:104B7000B8F1000F01D1206C08B9012000E000203D
:104B800038B900BF02F008F8FBF738FB00BF00BFE0
:104B9000FEE7022D02D1E06B012801D1012000E0E7
:104BA000002038B900BF01F0F7FFFBF727FB00BF7B
:104BB00000BFFEE701F090FB08B9059808B9012095
:104BC00000E0002038B900BF01F0E6FFFBF716FB5C
:104BD00000BF00BFFEE700BF02F083F8A06BE16BEF
:104BE000884201D3022D1CD12A4641462046FFF7B8
:104BF0006FFF0746606A08B9012000E0002038B95D
:104C000004F1240001F082FA28B102F060F802E019
:104C10000FB102F05CF802F093F8012007B0BDE894
:104C2000F083059818B902F08BF80020F6E7B9F187
:104C3000000F04D101A801F0EDFA4FF0010902F0D4
:104C40007FF800F00BFE02F04CF894F94400401C91
:104C500010B9002084F8440094F94500401C10B9B4
:104C6000002084F8450002F06BF805A901A801F0C6
:104C7000E3FAC0B92046FFF71CFF70B104F1100041
:104C8000059901F000FA2046FFF7D4FE00F040FD40
:104C90000028A1D102F01BF89EE72046FFF7CAFECC
:104CA00000F036FD98E72046FFF7C4FE00F030FD27
:104CB0000020B3E710B504464CB1002060602060CE
:104CC000E06000231A4619462046FFF73FFF10BD5B
:104CD0002DE9F0410446012600272246002101204B
:104CE000FFF77FFE05462846FFF7E4FF2846BDE8AC
:104CF000F0812DE9F05F0646894617461D46344689
:104D00003CB900BF01F048FFFBF778FA00BF00BFD5
:104D1000FEE7B9F1000F01D1206C08B9012000E0D5
:104D2000002038B900BF01F037FFFBF767FA00BF7A
:104D300000BFFEE7022D02D1E06B012801D1012066
:104D400000E0002038B900BF01F026FFFBF756FA5B
:104D500000BF00BFFEE702F01EF8FBF74FFA8346E4
:104D6000A06BE16B884201D3022D20D194F945A0BC
:104D70002A4649462046FFF7ABFE0AF1010070B90A
:104D8000606A08B9012000E0002068B904F124003D
:104D900001F0BCF940B13FB10120386004E00AF1F4
:104DA000010040B284F845004FF0010801E04FF0E7
:104DB00000085846FBF729FA4046BDE8F09F2DE968
:104DC000F04705460E462C463CB900BF01F0E4FE14
:104DD000FBF714FA00BF00BFFEE7206C08B9012002
:104DE00000E0002038B900BF01F0D6FEFBF706FA5C
:104DF00000BF00BFFEE7206808B9606808B901205D
:104E000000E0002038B900BF01F0C6FEFBF7F6F95C
:104E100000BF00BFFEE701F0BEFFFBF7EFF98246DF
:104E2000D4F83880E06B40451DD994F9459008F1DD
:104E30000100A06309F1010070B9606A08B901209E
:104E400000E0002068B904F1240001F05FF940B1EE
:104E50003EB10120306004E009F1010040B284F865
:104E60004500012700E000275046FBF7CEF9384601
:104E7000BDE8F08770B5054601F033FFA86B08B9AF
:104E8000012400E0002401F05BFF204670BD70B5F6
:104E900004460D46206C70B1216CE0680844E06067
:104EA0006168E068884201D32068E0602846226C8F
:104EB000E16801F0AFFF70BD2DE9FF4782B0054604
:104EC0000E461F464FF0000A2C463CB900BF01F0C9
:104ED00063FEFBF793F900BF00BFFEE70EB9206C3D
:104EE00008B9012000E0002038B900BF01F054FEED
:104EF000FBF784F900BF00BFFEE701F0EDF908B948
:104F0000049808B9012000E0002038B900BF01F082
:104F100043FEFBF773F900BF00BFFEE700BF01F0DF
:104F2000E0FED4F83890B9F1000F31D0D4F80C80FD
:104F300031462046FFF7ABFFAFB9A9F10100A063EE
:104F4000206810B901F0A8FA6060206908B9012052
:104F500000E00020B0B904F1100001F0D7F888B1EA
:104F600001F0B5FE0EE0C4F80C80606A08B90120BB
:104F700000E0002030B904F1240001F0C7F808B1C6
:104F800001F0A5FE01F0DCFE012006B0BDE8F087CF
:104F9000049818B901F0D4FE0020F6E7BAF1000F2A
:104FA00004D1684601F036F94FF0010A01F0C8FE5D
:104FB00000F054FC01F095FE94F94400401C10B937
:104FC000002084F8440094F94500401C10B90020EA
:104FD00084F8450001F0B4FE04A9684601F02CF9FC
:104FE00008BB2046FFF746FFB8B1206830B901F092
:104FF00078FE606801F07CF901F0A2FE04F1240063
:10500000049901F040F82046FFF714FD00F080FB02
:10501000002884D101F05BFE81E72046FFF70AFDFE
:1050200000F076FB7BE72046FFF704FD00F070FB05
:105030002046FFF71FFF0028EED00020A5E72DE94E
:10504000F05F0546884616462C463CB900BF01F085
:10505000A3FDFBF7D3F800BF00BFFEE7B8F1000FD8
:1050600001D1206C08B9012000E0002038B900BF50
:1050700001F092FDFBF7C2F800BF00BFFEE701F0B0
:105080008AFEFBF7BBF88346D4F83890B9F1000FDD
:1050900021D094F944A041462046FFF7F8FEA9F13B
:1050A0000100A0630AF1010070B9206908B901206C
:1050B00000E0002068B904F1100001F027F840B1C9
:1050C0003EB10120306004E00AF1010040B284F8F2
:1050D0004400012700E000275846FBF796F83846C1
:1050E000BDE8F09F2DE9F04705460F462C463CB938
:1050F00000BF01F051FDFBF781F800BF00BFFEE7E4
:105100000FB9206C08B9012000E0002038B900BFB9
:1051100001F042FDFBF772F800BF00BFFEE7206C14
:1051200008B1012000E0002038B900BF01F034FDD3
:10513000FBF764F800BF00BFFEE701F02CFEFBF7B1
:105140005DF88146A06B48B1D4F80C803946204602
:10515000FFF79DFEC4F80C80012600E000264846BB
:10516000FBF753F83046BDE8F08770B504463CB90C
:1051700000BF01F011FDFBF741F800BF00BFFEE7E3
:1051800001F0AFFDA56B01F0DBFD284670BD70B5E9
:10519000044625463DB900BF01F0FEFCFBF72EF8A2
:1051A00000BF00BFFEE701F09CFDD5E90E10461AD6
:1051B00001F0C6FD304670BD70B504463CB900BF75
:1051C00001F0EAFCFBF71AF800BF00BFFEE7A56B91
:1051D000284670BD014600200EE03D4A02EBC002A9
:1051E00052688A4207D10022394B43F8302003EB42
:1051F000C0035A6002E0401C0828EED300BF70478D
:1052000070B5044625463DB900BF01F0C5FCFAF76C
:10521000F5FF00BF00BFFEE72846FFF7DBFF28468B
:1052200001F066FC70BD0146886C70478164704770
:10523000014691F84C00704770B505463DB900BF76
:1052400001F0AAFCFAF7DAFF00BF00BFFEE7A86B87
:1052500008B9012400E00024204670BD70B5044662
:105260003CB900BF01F098FCFAF7C8FF00BF00BFCF
:10527000FEE7A06BE16B884201D1012500E000252B
:10528000284670BD024600200BE0114B53F8303029
:1052900033B90F4B43F8301003EBC0035A6002E000
:1052A000401C0828F1D300BF7047024600200021AF
:1052B0000AE0074B03EBC1035B68934203D1044B45
:1052C00053F8310002E0491C0829F2D300BF7047AF
:1052D0004801002010B5002407E004EB8401F84ADF
:1052E00002EB810001F0CEFA641C072CF5D3F548DF
:1052F00001F0C8FAF44801F0C5FAF44801F0C2FA26
:10530000F34801F0BFFAF34801F0BCFAED48F24966
:105310000860ED48F149086010BD10B5044601F081
:10532000E0FCEF480068401CED490860ED4800686B
:1053300040B9EC4804600846006801280DD1FFF729
:10534000C9FF0AE0E848006838B9E6480068C06A62
:10535000E16A884201D8E3480460E4480068401CE0
:10536000E249086008460068606494F82C10012047
:105370008840DF4909680843DD490860E16A01EBBC
:105380008101CF4A02EB8100211D01F08BFA01F06F
:10539000D7FCD548006838B1D2480068C06AE16AD5
:1053A000884201D201F093FC10BD2DE9F05F8246E6
:1053B0000F4690469B460A9E0C9C4FEA8801A52208
:1053C000206B01F039FDA8F10100216B01EB800990
:1053D00029F0070909F0070008B9012000E00020C2
:1053E00038B900BF01F0D8FBFAF708FF00BF00BFD3
:1053F000FEE7002507E0795D04F134004155785D52
:1054000000B902E06D1C102DF5D300BF0021432030
:105410000155072E00D30626E662E66400202065CB
:10542000201D01F03CFA04F1180001F038FA246163
:10543000C6F10700A06164620020606584F858002E
:105440005A465146484601F0C6FB20600B9808B109
:105450000B980460BDE8F09F2DE9FF4F85B08046B2
:1054600089461746DDE912ABB80001F0B6FA0646E8
:1054700056B15C2001F0B1FA04460CB1266304E099
:10548000304601F035FB00E000247CB10020CDE97E
:1054900000ABCDE902403A4649464046089BFFF73B
:1054A00084FF2046FFF739FF012501E04FF0FF356B
:1054B000284609B0BDE8F08F87490968096809B92D
:1054C000012100E0002121B14FF0FF31894A116034
:1054D00006E081490968C968C868864A4168116060
:1054E000704710B50446206B01F002FB204601F026
:1054F000FFFA10BD70B5054601F0F3FB15B9794808
:10550000006800E028460446201D01F0F1F978B952
:10551000E06A00EB80006A4951F8200040B994F835
:105520002C1001208840724909688143704801604D
:10553000A06A18B104F1180001F0DAF96B480068AC
:10554000401C6A49086067480068844209D1211DEF
:105550005F4801F0A7F968480068401C6649086088
:1055600009E05F480068401E5D4908602046FFF77B
:10557000B8FFFFF7A1FF01F0E3FB5B480068A0B1B3
:1055800058480068844210D15C48006808B901207E
:1055900000E0002038B900BF01F0FEFAFAF72EFE55
:1055A00000BF00BFFEE701F092FB70BD2DE9F041A6
:1055B0004FF0000851480068002874D15048006836
:1055C000451C4F480560FDB943480068006808B9AC
:1055D000012000E0002038B900BF01F0DDFAFAF741
:1055E0000DFE00BF00BFFEE73B4807683B48006870
:1055F000394908603948076042480068401C414901
:105600000860FFF759FF00BF3A48006885423CD365
:1056100000BF31480068006808B9012000E00020A0
:1056200020B14FF0FF30334908602DE02A48006870
:10563000C068C4686668B54202D22E48066023E09E
:10564000201D01F055F9A06A18B104F1180001F00D
:105650004FF994F82C100120884025490968084327
:1056600023490860E16A01EB8101154A02EB8100E0
:10567000211D01F017F91B49E06A0968C96A8842CF
:10568000C7D34FF00108C4E700BF16480068C06ADE
:1056900000EB80000A4951F82000012801D94FF0A1
:1056A000010805E0FFE718480068401C164908603B
:1056B0001648006808B14FF001084046BDE8F08187
:1056C0008801002014020020280200203C02002053
:1056D0005002002064020020180000201C0000205E
:1056E0002400002014000020300000204000002092
:1056F0002C00002044000020200000204C0000204E
:10570000280000203C000020340000203800002049
:1057100070B500240026F848006838B900BF01F0D1
:105720003BFAFAF76BFD00BF00BFFEE701F0D9FAC4
:10573000F1480068401EF0490860084600680028EB
:105740004AD1EE480068002846D024E0EC48C06802
:10575000C46804F1180001F0CBF8201D01F0C8F86E
:1057600094F82C1001208840E64909680843E5496F
:105770000860E16A01EB8101E34A02EB8100211D2F
:1057800001F090F8E149E06A0968C96A884202D3E9
:105790000120DF490860DA48006808B9012000E00C
:1057A00000200028D2D00CB1FFF786FED94805684A
:1057B00065B100BFFFF7FAFE10B10120D4490860BF
:1057C0006D1E002DF6D10020D2490860D048006837
:1057D00010B1012601F07BFA01F0B2FA304670BD3B
:1057E0002DE9F04105460E46CB480768C7480068DA
:1057F000001D01F07DF850B9C448006890F82C10E5
:1058000001208840BF4909688143BE480160681C87
:1058100038B936B1BD480168091DC04801F042F8E9
:105820001AE07C19B94800684460BC4207D2B74806
:105830000168091DBA48006801F040F80CE0B3485F
:105840000168091DB748006801F038F8B6480068DB
:10585000844201D2B4480460BDE8F081A6480068E3
:10586000401CA549086070472DE9F04704460F46E3
:105870004FF000093CB900BF01F08EF9FAF7BEFC09
:1058800000BF00BFFEE70FB1012000E0002038B9E3
:1058900000BF01F081F9FAF7B1FC00BF00BFFEE7DD
:1058A0009548006808B9012000E0002038B900BF21
:1058B00001F072F9FAF7A2FC00BF00BFFEE7FFF7A4
:1058C000CDFF954806682068C5192068B04207D901
:1058D0002068A8420BD9B54209D94FF0010906E06A
:1058E0002068A84201D8B54201D94FF001092560CE
:1058F000B9F1000F03D0A81B0021FFF771FFFFF7DC
:1059000007FF8046B8F1000F01D101F0E0F9BDE8D2
:10591000F08770B504460025BCB17748006808B927
:10592000012000E0002038B900BF01F035F9FAF796
:1059300065FC00BF00BFFEE7FFF790FF0021204697
:10594000FFF74EFFFFF7E4FE05460DB901F0BFF982
:1059500070BD2DE9F04107463E463EB900BF01F05B
:105960001BF9FAF74BFC00BF00BFFEE76748006871
:10597000864201D100241EE001F0B3F9756901F0FF
:10598000DFF968480068854203D0654800688542B1
:1059900001D102240FE06148854205D1B06A08B9FF
:1059A000032408E0022406E06048854200D00DB9D7
:1059B000042400E001242046BDE8F08170B50446CF
:1059C00001F08FF914B95148006800E020460646FE
:1059D000F56A01F0B5F9284670BD2DE9F04104469D
:1059E00001F0D9F9FAF70AFC064614B947480068ED
:1059F00000E020460746FD6A3046FAF706FC2846D6
:105A0000BDE8F0812DE9F04780460D464FF00009D2
:105A1000072D01D2012000E0002038B900BF01F0BD
:105A2000BBF8FAF7EBFB00BF00BFFEE7072D00D382
:105A3000062501F056F9B8F1000F02D1334800688D
:105A400000E040460446E66CAE4250D0B5420BD969
:105A50002E48006884420DD02C480068C06AA842D5
:105A600008D84FF0010905E028480068844201D1B8
:105A70004FF00109E76AE16AE06C884200D1E56213
:105A8000E564A06900F0004010B9C5F10700A0610D
:105A900007EB87011C4A02EB81016069884201D152
:105AA000012000E00020E0B1201D00F021FF30B90E
:105AB0000120B8401349096881431248016094F8F5
:105AC0002C10012088400F49096808430D490860DF
:105AD000E16A01EB81010C4A02EB8100211D00F01B
